{
  "contractName": "ticketingSystem",
  "abi": [
    {
      "inputs": [],
      "payable": false,
      "stateMutability": "nonpayable",
      "type": "constructor"
    },
    {
      "constant": true,
      "inputs": [
        {
          "internalType": "uint256",
          "name": "",
          "type": "uint256"
        }
      ],
      "name": "artistsRegister",
      "outputs": [
        {
          "internalType": "address payable",
          "name": "owner",
          "type": "address"
        },
        {
          "internalType": "bytes32",
          "name": "name",
          "type": "bytes32"
        },
        {
          "internalType": "uint256",
          "name": "artistCategory",
          "type": "uint256"
        },
        {
          "internalType": "uint256",
          "name": "totalTicketSold",
          "type": "uint256"
        }
      ],
      "payable": false,
      "stateMutability": "view",
      "type": "function"
    },
    {
      "constant": true,
      "inputs": [
        {
          "internalType": "uint256",
          "name": "",
          "type": "uint256"
        }
      ],
      "name": "concertsRegister",
      "outputs": [
        {
          "internalType": "uint256",
          "name": "artistId",
          "type": "uint256"
        },
        {
          "internalType": "uint256",
          "name": "venueId",
          "type": "uint256"
        },
        {
          "internalType": "uint256",
          "name": "concertDate",
          "type": "uint256"
        },
        {
          "internalType": "uint256",
          "name": "ticketPrice",
          "type": "uint256"
        },
        {
          "internalType": "uint256",
          "name": "totalSoldTicket",
          "type": "uint256"
        },
        {
          "internalType": "uint256",
          "name": "totalMoneyCollected",
          "type": "uint256"
        },
        {
          "internalType": "bool",
          "name": "validatedByArtist",
          "type": "bool"
        },
        {
          "internalType": "bool",
          "name": "validatedByVenue",
          "type": "bool"
        }
      ],
      "payable": false,
      "stateMutability": "view",
      "type": "function"
    },
    {
      "constant": true,
      "inputs": [],
      "name": "nextArtistNumber",
      "outputs": [
        {
          "internalType": "uint256",
          "name": "",
          "type": "uint256"
        }
      ],
      "payable": false,
      "stateMutability": "view",
      "type": "function"
    },
    {
      "constant": true,
      "inputs": [],
      "name": "nextConcertNumber",
      "outputs": [
        {
          "internalType": "uint256",
          "name": "",
          "type": "uint256"
        }
      ],
      "payable": false,
      "stateMutability": "view",
      "type": "function"
    },
    {
      "constant": true,
      "inputs": [],
      "name": "nextTicketNumber",
      "outputs": [
        {
          "internalType": "uint256",
          "name": "",
          "type": "uint256"
        }
      ],
      "payable": false,
      "stateMutability": "view",
      "type": "function"
    },
    {
      "constant": true,
      "inputs": [],
      "name": "nextVenueNumber",
      "outputs": [
        {
          "internalType": "uint256",
          "name": "",
          "type": "uint256"
        }
      ],
      "payable": false,
      "stateMutability": "view",
      "type": "function"
    },
    {
      "constant": true,
      "inputs": [
        {
          "internalType": "uint256",
          "name": "",
          "type": "uint256"
        }
      ],
      "name": "ticketsRegister",
      "outputs": [
        {
          "internalType": "address payable",
          "name": "owner",
          "type": "address"
        },
        {
          "internalType": "bool",
          "name": "isAvailable",
          "type": "bool"
        },
        {
          "internalType": "uint256",
          "name": "concertId",
          "type": "uint256"
        },
        {
          "internalType": "uint256",
          "name": "amountPaid",
          "type": "uint256"
        },
        {
          "internalType": "bool",
          "name": "isAvailableForSale",
          "type": "bool"
        },
        {
          "internalType": "uint256",
          "name": "salePrice",
          "type": "uint256"
        }
      ],
      "payable": false,
      "stateMutability": "view",
      "type": "function"
    },
    {
      "constant": true,
      "inputs": [
        {
          "internalType": "uint256",
          "name": "",
          "type": "uint256"
        }
      ],
      "name": "venuesRegister",
      "outputs": [
        {
          "internalType": "address payable",
          "name": "owner",
          "type": "address"
        },
        {
          "internalType": "bytes32",
          "name": "name",
          "type": "bytes32"
        },
        {
          "internalType": "uint256",
          "name": "capacity",
          "type": "uint256"
        },
        {
          "internalType": "uint256",
          "name": "standardComission",
          "type": "uint256"
        }
      ],
      "payable": false,
      "stateMutability": "view",
      "type": "function"
    },
    {
      "constant": false,
      "inputs": [
        {
          "internalType": "bytes32",
          "name": "artistName",
          "type": "bytes32"
        },
        {
          "internalType": "uint256",
          "name": "artistCategory",
          "type": "uint256"
        }
      ],
      "name": "createArtist",
      "outputs": [],
      "payable": false,
      "stateMutability": "nonpayable",
      "type": "function"
    },
    {
      "constant": false,
      "inputs": [
        {
          "internalType": "uint256",
          "name": "artistId",
          "type": "uint256"
        },
        {
          "internalType": "bytes32",
          "name": "nameArtist",
          "type": "bytes32"
        },
        {
          "internalType": "uint256",
          "name": "artistCategory",
          "type": "uint256"
        },
        {
          "internalType": "address payable",
          "name": "newOwner",
          "type": "address"
        }
      ],
      "name": "modifyArtist",
      "outputs": [],
      "payable": false,
      "stateMutability": "nonpayable",
      "type": "function"
    },
    {
      "constant": false,
      "inputs": [
        {
          "internalType": "bytes32",
          "name": "_name",
          "type": "bytes32"
        },
        {
          "internalType": "uint256",
          "name": "_capacity",
          "type": "uint256"
        },
        {
          "internalType": "uint256",
          "name": "_standardComission",
          "type": "uint256"
        }
      ],
      "name": "createVenue",
      "outputs": [],
      "payable": false,
      "stateMutability": "nonpayable",
      "type": "function"
    },
    {
      "constant": false,
      "inputs": [
        {
          "internalType": "uint256",
          "name": "venueId",
          "type": "uint256"
        },
        {
          "internalType": "bytes32",
          "name": "venueName",
          "type": "bytes32"
        },
        {
          "internalType": "uint256",
          "name": "venueCapacity",
          "type": "uint256"
        },
        {
          "internalType": "uint256",
          "name": "venueComission",
          "type": "uint256"
        },
        {
          "internalType": "address payable",
          "name": "owner",
          "type": "address"
        }
      ],
      "name": "modifyVenue",
      "outputs": [],
      "payable": false,
      "stateMutability": "nonpayable",
      "type": "function"
    },
    {
      "constant": false,
      "inputs": [
        {
          "internalType": "uint256",
          "name": "_artistId",
          "type": "uint256"
        },
        {
          "internalType": "uint256",
          "name": "_venueId",
          "type": "uint256"
        },
        {
          "internalType": "uint256",
          "name": "_concertDate",
          "type": "uint256"
        },
        {
          "internalType": "uint256",
          "name": "_ticketPrice",
          "type": "uint256"
        }
      ],
      "name": "createConcert",
      "outputs": [],
      "payable": false,
      "stateMutability": "nonpayable",
      "type": "function"
    },
    {
      "constant": false,
      "inputs": [
        {
          "internalType": "uint256",
          "name": "_concertId",
          "type": "uint256"
        }
      ],
      "name": "validateConcert",
      "outputs": [],
      "payable": false,
      "stateMutability": "nonpayable",
      "type": "function"
    },
    {
      "constant": false,
      "inputs": [
        {
          "internalType": "uint256",
          "name": "_concertId",
          "type": "uint256"
        },
        {
          "internalType": "address payable",
          "name": "_ticketOwner",
          "type": "address"
        }
      ],
      "name": "emitTicket",
      "outputs": [],
      "payable": false,
      "stateMutability": "nonpayable",
      "type": "function"
    },
    {
      "constant": false,
      "inputs": [
        {
          "internalType": "uint256",
          "name": "_ticketId",
          "type": "uint256"
        }
      ],
      "name": "useTicket",
      "outputs": [],
      "payable": false,
      "stateMutability": "nonpayable",
      "type": "function"
    },
    {
      "constant": false,
      "inputs": [
        {
          "internalType": "uint256",
          "name": "_concertId",
          "type": "uint256"
        }
      ],
      "name": "buyTicket",
      "outputs": [],
      "payable": true,
      "stateMutability": "payable",
      "type": "function"
    },
    {
      "constant": false,
      "inputs": [
        {
          "internalType": "uint256",
          "name": "_ticketId",
          "type": "uint256"
        },
        {
          "internalType": "address payable",
          "name": "_newOwner",
          "type": "address"
        }
      ],
      "name": "transferTicket",
      "outputs": [],
      "payable": false,
      "stateMutability": "nonpayable",
      "type": "function"
    },
    {
      "constant": false,
      "inputs": [
        {
          "internalType": "uint256",
          "name": "_concertId",
          "type": "uint256"
        },
        {
          "internalType": "address payable",
          "name": "_cashOutAddress",
          "type": "address"
        }
      ],
      "name": "cashOutConcert",
      "outputs": [],
      "payable": false,
      "stateMutability": "nonpayable",
      "type": "function"
    },
    {
      "constant": false,
      "inputs": [
        {
          "internalType": "uint256",
          "name": "_ticketId",
          "type": "uint256"
        },
        {
          "internalType": "uint256",
          "name": "_salePrice",
          "type": "uint256"
        }
      ],
      "name": "offerTicketForSale",
      "outputs": [],
      "payable": false,
      "stateMutability": "nonpayable",
      "type": "function"
    },
    {
      "constant": false,
      "inputs": [
        {
          "internalType": "uint256",
          "name": "_ticketId",
          "type": "uint256"
        }
      ],
      "name": "buySecondHandTicket",
      "outputs": [],
      "payable": true,
      "stateMutability": "payable",
      "type": "function"
    }
  ],
  "bytecode": "0x608060405234801561001057600080fd5b506001600081905550600160028190555060016004819055506001600681905550611c2c806100406000396000f3fe60806040526004361061012a5760003560e01c80636bcec2e1116100ab578063a88ae8151161006f578063a88ae815146105ea578063d67a396b1461067a578063d6ecc2b1146106a5578063e03536f314610700578063e62e4f8d14610759578063f02eafd11461079e5761012a565b80636bcec2e11461040c57806388d658461461043757806390b3b014146104b057806392fc3b081461051f57806397af29301461055a5761012a565b80635c6a72a3116100f25780635c6a72a3146102845780635dfe9291146102af578063640c490914610355578063679ebf1a1461038357806367dd74ca146103de5761012a565b8063176067371461012f5780632660644814610174578063486ff9ae146101af5780634b9d58941461020a57806359cb327a14610235575b600080fd5b34801561013b57600080fd5b506101726004803603604081101561015257600080fd5b810190808035906020019092919080359060200190929190505050610826565b005b34801561018057600080fd5b506101ad6004803603602081101561019757600080fd5b8101908080359060200190929190505050610983565b005b3480156101bb57600080fd5b50610208600480360360408110156101d257600080fd5b8101908080359060200190929190803573ffffffffffffffffffffffffffffffffffffffff169060200190929190505050610b34565b005b34801561021657600080fd5b5061021f610d12565b6040518082815260200191505060405180910390f35b34801561024157600080fd5b506102826004803603606081101561025857600080fd5b81019080803590602001909291908035906020019092919080359060200190929190505050610d18565b005b34801561029057600080fd5b50610299610dee565b6040518082815260200191505060405180910390f35b3480156102bb57600080fd5b506102e8600480360360208110156102d257600080fd5b8101908080359060200190929190505050610df4565b604051808773ffffffffffffffffffffffffffffffffffffffff1673ffffffffffffffffffffffffffffffffffffffff1681526020018615151515815260200185815260200184815260200183151515158152602001828152602001965050505050505060405180910390f35b6103816004803603602081101561036b57600080fd5b8101908080359060200190929190505050610e6a565b005b34801561038f57600080fd5b506103dc600480360360408110156103a657600080fd5b8101908080359060200190929190803573ffffffffffffffffffffffffffffffffffffffff169060200190929190505050610fca565b005b61040a600480360360208110156103f457600080fd5b8101908080359060200190929190505050611091565b005b34801561041857600080fd5b506104216111b0565b6040518082815260200191505060405180910390f35b34801561044357600080fd5b506104ae600480360360a081101561045a57600080fd5b8101908080359060200190929190803590602001909291908035906020019092919080359060200190929190803573ffffffffffffffffffffffffffffffffffffffff1690602001909291905050506111b6565b005b3480156104bc57600080fd5b5061051d600480360360808110156104d357600080fd5b81019080803590602001909291908035906020019092919080359060200190929190803573ffffffffffffffffffffffffffffffffffffffff1690602001909291905050506112d1565b005b34801561052b57600080fd5b506105586004803603602081101561054257600080fd5b81019080803590602001909291905050506113d0565b005b34801561056657600080fd5b506105936004803603602081101561057d57600080fd5b810190808035906020019092919050505061153f565b604051808573ffffffffffffffffffffffffffffffffffffffff1673ffffffffffffffffffffffffffffffffffffffff16815260200184815260200183815260200182815260200194505050505060405180910390f35b3480156105f657600080fd5b506106236004803603602081101561060d57600080fd5b810190808035906020019092919050505061158f565b604051808573ffffffffffffffffffffffffffffffffffffffff1673ffffffffffffffffffffffffffffffffffffffff16815260200184815260200183815260200182815260200194505050505060405180910390f35b34801561068657600080fd5b5061068f6115df565b6040518082815260200191505060405180910390f35b3480156106b157600080fd5b506106fe600480360360408110156106c857600080fd5b8101908080359060200190929190803573ffffffffffffffffffffffffffffffffffffffff1690602001909291905050506115e5565b005b34801561070c57600080fd5b506107576004803603608081101561072357600080fd5b81019080803590602001909291908035906020019092919080359060200190929190803590602001909291905050506118a2565b005b34801561076557600080fd5b5061079c6004803603604081101561077c57600080fd5b8101908080359060200190929190803590602001909291905050506119a6565b005b3480156107aa57600080fd5b506107d7600480360360208110156107c157600080fd5b8101908080359060200190929190505050611a7a565b6040518089815260200188815260200187815260200186815260200185815260200184815260200183151515158152602001821515151581526020019850505050505050505060405180910390f35b3373ffffffffffffffffffffffffffffffffffffffff166007600084815260200190815260200160002060000160009054906101000a900473ffffffffffffffffffffffffffffffffffffffff1673ffffffffffffffffffffffffffffffffffffffff161461089457600080fd5b600060076000848152602001908152602001600020600101549050816005600083815260200190815260200160002060030154116108d157600080fd5b600115156007600085815260200190815260200160002060000160149054906101000a900460ff1615151461090557600080fd5b60016007600085815260200190815260200160002060030160006101000a81548160ff02191690831515021790555060016007600085815260200190815260200160002060000160146101000a81548160ff021916908315150217905550816007600085815260200190815260200160002060040181905550505050565b3373ffffffffffffffffffffffffffffffffffffffff166007600083815260200190815260200160002060000160009054906101000a900473ffffffffffffffffffffffffffffffffffffffff1673ffffffffffffffffffffffffffffffffffffffff16146109f157600080fd5b600560006007600084815260200190815260200160002060010154815260200190815260200160002060060160009054906101000a900460ff16610a3457600080fd5b600560006007600084815260200190815260200160002060010154815260200190815260200160002060060160019054906101000a900460ff16610a7757600080fd5b62015180420160056000600760008581526020019081526020016000206001015481526020019081526020016000206002015410610ab457600080fd5b60076000828152602001908152602001600020600080820160006101000a81549073ffffffffffffffffffffffffffffffffffffffff02191690556000820160146101000a81549060ff0219169055600182016000905560028201600090556003820160006101000a81549060ff02191690556004820160009055505050565b60006005600084815260200190815260200160002060000154905060006001600083815260200190815260200160002060000160009054906101000a900473ffffffffffffffffffffffffffffffffffffffff1690503373ffffffffffffffffffffffffffffffffffffffff168173ffffffffffffffffffffffffffffffffffffffff1614610bc257600080fd5b60016005600086815260200190815260200160002060040160008282540192505081905550610bef611adc565b6040518060c001604052808573ffffffffffffffffffffffffffffffffffffffff16815260200160011515815260200186815260200160008152602001600015158152602001600081525090508060076000600654815260200190815260200160002060008201518160000160006101000a81548173ffffffffffffffffffffffffffffffffffffffff021916908373ffffffffffffffffffffffffffffffffffffffff16021790555060208201518160000160146101000a81548160ff021916908315150217905550604082015181600101556060820151816002015560808201518160030160006101000a81548160ff02191690831515021790555060a0820151816004015590505060016006600082825401925050819055505050505050565b60065481565b610d20611b2c565b60405180608001604052803373ffffffffffffffffffffffffffffffffffffffff1681526020018581526020018481526020018381525090508060036000600254815260200190815260200160002060008201518160000160006101000a81548173ffffffffffffffffffffffffffffffffffffffff021916908373ffffffffffffffffffffffffffffffffffffffff160217905550602082015181600101556040820151816002015560608201518160030155905050600160026000828254019250508190555050505050565b60045481565b60076020528060005260406000206000915090508060000160009054906101000a900473ffffffffffffffffffffffffffffffffffffffff16908060000160149054906101000a900460ff16908060010154908060020154908060030160009054906101000a900460ff16908060040154905086565b6007600082815260200190815260200160002060040154341015610e8d57600080fd5b600115156007600083815260200190815260200160002060000160149054906101000a900460ff16151514610ec157600080fd5b600115156007600083815260200190815260200160002060030160009054906101000a900460ff16151514610ef557600080fd5b6007600082815260200190815260200160002060000160009054906101000a900473ffffffffffffffffffffffffffffffffffffffff1673ffffffffffffffffffffffffffffffffffffffff166108fc349081150290604051600060405180830381858888f19350505050158015610f71573d6000803e3d6000fd5b50336007600083815260200190815260200160002060000160006101000a81548173ffffffffffffffffffffffffffffffffffffffff021916908373ffffffffffffffffffffffffffffffffffffffff16021790555050565b3373ffffffffffffffffffffffffffffffffffffffff166007600084815260200190815260200160002060000160009054906101000a900473ffffffffffffffffffffffffffffffffffffffff1673ffffffffffffffffffffffffffffffffffffffff161461103857600080fd5b806007600084815260200190815260200160002060000160006101000a81548173ffffffffffffffffffffffffffffffffffffffff021916908373ffffffffffffffffffffffffffffffffffffffff1602179055505050565b60016005600083815260200190815260200160002060040160008282540192505081905550346005600083815260200190815260200160002060050160008282540192505081905550806007600060065481526020019081526020016000206001018190555034600760006006548152602001908152602001600020600201819055503360076000600654815260200190815260200160002060000160006101000a81548173ffffffffffffffffffffffffffffffffffffffff021916908373ffffffffffffffffffffffffffffffffffffffff160217905550600160076000600654815260200190815260200160002060000160146101000a81548160ff021916908315150217905550600160066000828254019250508190555050565b60005481565b3373ffffffffffffffffffffffffffffffffffffffff166003600087815260200190815260200160002060000160009054906101000a900473ffffffffffffffffffffffffffffffffffffffff1673ffffffffffffffffffffffffffffffffffffffff161461122457600080fd5b836003600087815260200190815260200160002060010181905550826003600087815260200190815260200160002060020181905550816003600087815260200190815260200160002060030181905550806003600087815260200190815260200160002060000160006101000a81548173ffffffffffffffffffffffffffffffffffffffff021916908373ffffffffffffffffffffffffffffffffffffffff1602179055505050505050565b3373ffffffffffffffffffffffffffffffffffffffff166001600086815260200190815260200160002060000160009054906101000a900473ffffffffffffffffffffffffffffffffffffffff1673ffffffffffffffffffffffffffffffffffffffff161461133f57600080fd5b806001600086815260200190815260200160002060000160006101000a81548173ffffffffffffffffffffffffffffffffffffffff021916908373ffffffffffffffffffffffffffffffffffffffff16021790555082600160008681526020019081526020016000206001018190555081600160008681526020019081526020016000206002018190555050505050565b6000600560008381526020019081526020016000206000015490506000600560008481526020019081526020016000206001015490503373ffffffffffffffffffffffffffffffffffffffff166001600084815260200190815260200160002060000160009054906101000a900473ffffffffffffffffffffffffffffffffffffffff1673ffffffffffffffffffffffffffffffffffffffff1614156114a05760016005600085815260200190815260200160002060060160006101000a81548160ff0219169083151502179055505b3373ffffffffffffffffffffffffffffffffffffffff166003600083815260200190815260200160002060000160009054906101000a900473ffffffffffffffffffffffffffffffffffffffff1673ffffffffffffffffffffffffffffffffffffffff16141561153a5760016005600085815260200190815260200160002060060160016101000a81548160ff0219169083151502179055505b505050565b60016020528060005260406000206000915090508060000160009054906101000a900473ffffffffffffffffffffffffffffffffffffffff16908060010154908060020154908060030154905084565b60036020528060005260406000206000915090508060000160009054906101000a900473ffffffffffffffffffffffffffffffffffffffff16908060010154908060020154908060030154905084565b60025481565b60006005600084815260200190815260200160002060000154905060006001600083815260200190815260200160002060000160009054906101000a900473ffffffffffffffffffffffffffffffffffffffff1690503373ffffffffffffffffffffffffffffffffffffffff168173ffffffffffffffffffffffffffffffffffffffff161461167357600080fd5b4260056000868152602001908152602001600020600201541061169557600080fd5b60006005600086815260200190815260200160002060050154905060006005600087815260200190815260200160002060010154905060006127106003600084815260200190815260200160002060030154816116ee57fe5b04905060008184029050600081850390508773ffffffffffffffffffffffffffffffffffffffff166108fc829081150290604051600060405180830381858888f19350505050158015611745573d6000803e3d6000fd5b5060036000600560008c815260200190815260200160002060010154815260200190815260200160002060000160009054906101000a900473ffffffffffffffffffffffffffffffffffffffff1673ffffffffffffffffffffffffffffffffffffffff166108fc839081150290604051600060405180830381858888f193505050501580156117d8573d6000803e3d6000fd5b50600560008a81526020019081526020016000206004015460016000600560008d815260200190815260200160002060000154815260200190815260200160002060030160008282540192505081905550600560008a8152602001908152602001600020600080820160009055600182016000905560028201600090556003820160009055600482016000905560058201600090556006820160006101000a81549060ff02191690556006820160016101000a81549060ff02191690555050505050505050505050565b6118aa611b6d565b604051806101000160405280868152602001858152602001848152602001838152602001600081526020016000815260200160001515815260200160001515815250905080600560006004548152602001908152602001600020600082015181600001556020820151816001015560408201518160020155606082015181600301556080820151816004015560a0820151816005015560c08201518160060160006101000a81548160ff02191690831515021790555060e08201518160060160016101000a81548160ff02191690831515021790555090505061198e6004546113d0565b60016004600082825401925050819055505050505050565b6119ae611bb6565b60405180608001604052803373ffffffffffffffffffffffffffffffffffffffff1681526020018481526020018381526020016000815250905080600160008054815260200190815260200160002060008201518160000160006101000a81548173ffffffffffffffffffffffffffffffffffffffff021916908373ffffffffffffffffffffffffffffffffffffffff16021790555060208201518160010155604082015181600201556060820151816003015590505060016000808282540192505081905550505050565b60056020528060005260406000206000915090508060000154908060010154908060020154908060030154908060040154908060050154908060060160009054906101000a900460ff16908060060160019054906101000a900460ff16905088565b6040518060c00160405280600073ffffffffffffffffffffffffffffffffffffffff1681526020016000151581526020016000815260200160008152602001600015158152602001600081525090565b6040518060800160405280600073ffffffffffffffffffffffffffffffffffffffff1681526020016000801916815260200160008152602001600081525090565b6040518061010001604052806000815260200160008152602001600081526020016000815260200160008152602001600081526020016000151581526020016000151581525090565b6040518060800160405280600073ffffffffffffffffffffffffffffffffffffffff168152602001600080191681526020016000815260200160008152509056fea265627a7a723158208720a790514bcacb6bddef6b52f06082c3a982691453c8862bc2612c265a3b3864736f6c634300050c0032",
  "source": "pragma solidity >=0.4.22 <0.6.0;\r\n\r\ncontract ticketingSystem {\r\n\r\n  // Structure artiste, id artiste depuis la variable globale et mapping entre l'id comme cle et la structure artiste comme valeur\r\n  uint256 public nextArtistNumber;\r\n  mapping(uint256 => Artist) public artistsRegister;\r\n\r\n  struct Artist {\r\n    address payable owner;\r\n\tbytes32 name;\r\n\tuint256 artistCategory;\r\n\tuint256 totalTicketSold;\r\n  }\r\n\r\n\r\n  // Structure venue, idvenue et mapping\r\n  uint256 public nextVenueNumber;\r\n  mapping(uint256 => Venue) public venuesRegister;\r\n  \r\n  struct Venue {\r\n\taddress payable owner;\r\n\tbytes32 name;\r\n\tuint256 capacity;\r\n\tuint256 standardComission;\r\n  }\r\n\r\n  // Structure concert, idconcert et mapping\r\n  uint256 public nextConcertNumber;\r\n  mapping(uint256 => Concert) public concertsRegister;\r\n  \r\n  struct Concert {\r\n\tuint256 artistId;\r\n\tuint256 venueId;\r\n\tuint256 concertDate;\r\n\tuint256 ticketPrice;\r\n\tuint256 totalSoldTicket;\r\n\tuint256 totalMoneyCollected;\r\n\tbool validatedByArtist;\r\n\tbool validatedByVenue;\r\n  }\r\n\r\n  // Structure ticket, ticketid et mapping\r\n  uint256 public nextTicketNumber;\r\n  mapping(uint256 => Ticket) public ticketsRegister;\r\n  \r\n  struct Ticket {\r\n    address payable owner;\r\n    bool isAvailable;\r\n\tuint256 concertId;\r\n    uint256 amountPaid;\r\n    bool isAvailableForSale;\r\n\tuint256 salePrice;\r\n  }\r\n\r\n  // Constructeur, initialisation des variable globales a 1 lors de la creation du contrat\r\n  constructor() public {\r\n\tnextArtistNumber = 1;\r\n\tnextVenueNumber = 1;\r\n\tnextConcertNumber = 1;\r\n\tnextTicketNumber = 1;\r\n  }\r\n\r\n  function createArtist(bytes32 artistName, uint256 artistCategory) public {\r\n\tArtist memory newArtist = Artist(msg.sender,artistName,artistCategory,0);\r\n\tartistsRegister[nextArtistNumber] = newArtist;\r\n\tnextArtistNumber += 1;\r\n  }\r\n\r\n  function modifyArtist(uint256 artistId, bytes32 nameArtist, uint256 artistCategory, address payable newOwner) public \r\n  {\r\n\t// Pour passer le try catch du test, \r\n\t// il faut verifier que la personne qui veut modifier les informations de l'artiste est bien l'artiste en personne\r\n\trequire(artistsRegister[artistId].owner == msg.sender);\r\n    artistsRegister[artistId].owner = newOwner;\r\n    artistsRegister[artistId].name = nameArtist;\r\n    artistsRegister[artistId].artistCategory = artistCategory;\r\n  }\r\n\r\n  function createVenue(bytes32 _name, uint256 _capacity, uint256 _standardComission) public {\r\n\tVenue memory newVenue = Venue(msg.sender, _name, _capacity, _standardComission);\r\n\tvenuesRegister[nextVenueNumber] = newVenue;\r\n\tnextVenueNumber += 1;\r\n  }\r\n\r\n  function modifyVenue(uint256 venueId, bytes32 venueName, uint256 venueCapacity, uint256 venueComission, address payable owner) public {\r\n    // Seul la personne qui a creer la venue peut la modifier, d'ou le require\r\n\trequire(venuesRegister[venueId].owner == msg.sender);\r\n\tvenuesRegister[venueId].name = venueName;\r\n\tvenuesRegister[venueId].capacity = venueCapacity;\r\n\tvenuesRegister[venueId].standardComission = venueComission;\r\n\tvenuesRegister[venueId].owner = owner;\r\n  }\r\n\r\n  function createConcert(uint256 _artistId, uint256 _venueId, uint256 _concertDate, uint256 _ticketPrice) public {\r\n\tConcert memory newConcert = Concert(_artistId,_venueId,_concertDate,_ticketPrice,0,0,false,false);\r\n\tconcertsRegister[nextConcertNumber] = newConcert;\r\n\tvalidateConcert(nextConcertNumber);\r\n\tnextConcertNumber += 1;\r\n  }\r\n  \r\n  function validateConcert(uint256 _concertId) public {\r\n\t// Tester si l'artiste du concert en question a bien mis le cration de ce concert\r\n\tuint256 idArtist = concertsRegister[_concertId].artistId;\r\n\tuint256 idVenue = concertsRegister[_concertId].venueId;\r\n\t// On regarde si l'addresse de l'artiste est equivalente  l'addresse qui a emis la creation du concert\r\n\t// Pareil avec la venue\r\n\tif (artistsRegister[idArtist].owner == msg.sender) concertsRegister[_concertId].validatedByArtist = true;\r\n\tif (venuesRegister[idVenue].owner == msg.sender) concertsRegister[_concertId].validatedByVenue = true;\r\n  }\r\n\r\n    function emitTicket(uint256 _concertId, address payable _ticketOwner) public {\r\n\t  // Only artists can emit tickets\r\n\t  uint256 artistIdConcert = concertsRegister[_concertId].artistId;\r\n\t  address payable artistOwnerAddress = artistsRegister[artistIdConcert].owner;\r\n\t  require(artistOwnerAddress == msg.sender);\r\n\t  \r\n\t  concertsRegister[_concertId].totalSoldTicket += 1;\r\n\t  Ticket memory newTicket = Ticket(_ticketOwner,true,_concertId,0,false,0);\r\n\t  ticketsRegister[nextTicketNumber] = newTicket;\r\n\t  nextTicketNumber += 1;\r\n\t}\r\n    \r\n\tfunction useTicket(uint256 _ticketId) public {\r\n\t  // Verifier que la personne qui veut utiliser le ticket est bien le proprietaire du ticket\r\n\t  require(ticketsRegister[_ticketId].owner == msg.sender);\r\n\t  \r\n\t  // Verifier que ce ticket vient bien d'un concert qui a ete valide par l'artiste et la venue\r\n      require(concertsRegister[ticketsRegister[_ticketId].concertId].validatedByArtist);\r\n      require(concertsRegister[ticketsRegister[_ticketId].concertId].validatedByVenue);\r\n\t  \r\n\t  // Et finalement il faut verifier si le ticket correspond bien aux dates du concert\r\n      require(concertsRegister[ticketsRegister[_ticketId].concertId].concertDate < now + 60*60*24);\r\n\t  \r\n\t  // We used the ticket so we delete it now in the mapping\r\n      delete ticketsRegister[_ticketId];\r\n    }\r\n\t\r\n\tfunction buyTicket(uint256 _concertId) public payable {\r\n\t  // On fait monter le nombre de tickets vendus et increment de l'argent gagne pour le concert donnee\r\n\t  concertsRegister[_concertId].totalSoldTicket +=1;\r\n      concertsRegister[_concertId].totalMoneyCollected += msg.value;\r\n\t  \r\n\t  // On met le montant du ticket\r\n\t  ticketsRegister[nextTicketNumber].concertId = _concertId;\r\n      ticketsRegister[nextTicketNumber].amountPaid = msg.value;\r\n      ticketsRegister[nextTicketNumber].owner = msg.sender;\r\n      ticketsRegister[nextTicketNumber].isAvailable = true;\r\n      nextTicketNumber +=1;\r\n    }\r\n\t\r\n\tfunction transferTicket(uint256 _ticketId, address payable _newOwner) public {\r\n\t\trequire(ticketsRegister[_ticketId].owner == msg.sender);\r\n\t\tticketsRegister[_ticketId].owner = _newOwner;\r\n\t}\r\n\t\r\n\tfunction cashOutConcert(uint256 _concertId, address payable _cashOutAddress) public {\r\n\t\t// On verifie que c'est bien l'artiste du concert qui veut recuperer l'argent et que le concert a bien ete effectuee\r\n\t\tuint256 artistIdConcert = concertsRegister[_concertId].artistId;\r\n\t\taddress payable adressOwnerArtist = artistsRegister[artistIdConcert].owner;\r\n\t\trequire(adressOwnerArtist == msg.sender);\r\n\t\trequire(concertsRegister[_concertId].concertDate < now);\r\n\t\t\r\n\t\t// Maintenant on recupere l'argent en utilisant la fonction .transfer (<address payable>.transfer(uint256 amount))\r\n\t\tuint256 totalMoney = concertsRegister[_concertId].totalMoneyCollected;\r\n\t\tuint256 venueIdConcert = concertsRegister[_concertId].venueId;\r\n\t\tuint256 comissionVenue = venuesRegister[venueIdConcert].standardComission / 10000;\r\n\t\t// Venue get a certain percentage of the ticket price : comission / 10 000\r\n\t\tuint256 venueShare = totalMoney * comissionVenue;\r\n        uint256 artistShare = totalMoney - venueShare;\r\n\t\t\r\n\t\t_cashOutAddress.transfer(artistShare);\r\n\t\tvenuesRegister[concertsRegister[_concertId].venueId].owner.transfer(venueShare);\r\n\t\t\r\n\t\t// Le concert est termine\r\n\t\tartistsRegister[concertsRegister[_concertId].artistId].totalTicketSold += concertsRegister[_concertId].totalSoldTicket;\r\n\t\tdelete concertsRegister[_concertId];\r\n\t}\r\n\t\r\n\tfunction offerTicketForSale(uint256 _ticketId, uint256 _salePrice) public {\r\n\t\trequire(ticketsRegister[_ticketId].owner == msg.sender);\r\n\t\t// Il faut que le prix du ticket soit superieur au prix de revente\r\n\t\tuint256 ticketIdFromConcertId = ticketsRegister[_ticketId].concertId;\r\n\t\trequire(concertsRegister[ticketIdFromConcertId].ticketPrice > _salePrice);\r\n\t\t// Le ticket est il disponible ou a t il deja ete utilise\r\n\t\trequire(ticketsRegister[_ticketId].isAvailable == true);\r\n\t\t\r\n\t\tticketsRegister[_ticketId].isAvailableForSale = true;\r\n\t\tticketsRegister[_ticketId].isAvailable = true;\r\n\t\tticketsRegister[_ticketId].salePrice = _salePrice;\r\n\t}\r\n\t\r\n\tfunction buySecondHandTicket(uint256 _ticketId) public payable {\r\n\t\trequire(msg.value >= ticketsRegister[_ticketId].salePrice);\r\n\t\trequire(ticketsRegister[_ticketId].isAvailable == true);\r\n\t\trequire(ticketsRegister[_ticketId].isAvailableForSale == true);\r\n\t\t\r\n\t\t// On fait le transfert d'argent au proprietaire du billet\r\n\t\tticketsRegister[_ticketId].owner.transfer(msg.value);\r\n\t\t// On change le nom du ticket pour le nom du nouveau proprietaire\r\n\t\tticketsRegister[_ticketId].owner = msg.sender;\r\n\t}\r\n}\r\n",
  "sourcePath": "C:/Users/Admin/TD8_Ethereum/truffle-testing/contracts/ticketingSystem.sol",
  "compiler": {
    "name": "solc",
    "version": "0.5.12+commit.7709ece9.Emscripten.clang"
  },
  "schemaVersion": "3.0.19",
  "updatedAt": "2019-12-22T10:50:03.346Z",
  "networkType": "ethereum",
  "devdoc": {
    "methods": {}
  },
  "userdoc": {
    "methods": {}
  }
}